{
  "contractName": "PlanetBuildings",
  "abi": [
    {
      "constant": true,
      "inputs": [
        {
          "name": "",
          "type": "uint32"
        }
      ],
      "name": "planetByPosition",
      "outputs": [
        {
          "name": "",
          "type": "uint32"
        }
      ],
      "payable": false,
      "stateMutability": "view",
      "type": "function"
    },
    {
      "constant": true,
      "inputs": [],
      "name": "owner",
      "outputs": [
        {
          "name": "",
          "type": "address"
        }
      ],
      "payable": false,
      "stateMutability": "view",
      "type": "function"
    },
    {
      "constant": false,
      "inputs": [
        {
          "name": "newOwner",
          "type": "address"
        }
      ],
      "name": "transferOwnership",
      "outputs": [],
      "payable": false,
      "stateMutability": "nonpayable",
      "type": "function"
    },
    {
      "anonymous": false,
      "inputs": [
        {
          "indexed": false,
          "name": "planetId",
          "type": "uint256"
        }
      ],
      "name": "NewPlanet",
      "type": "event"
    },
    {
      "anonymous": false,
      "inputs": [
        {
          "indexed": true,
          "name": "previousOwner",
          "type": "address"
        },
        {
          "indexed": true,
          "name": "newOwner",
          "type": "address"
        }
      ],
      "name": "OwnershipTransferred",
      "type": "event"
    }
  ],
  "bytecode": "0x60806040526060604051908101604052806101f461ffff1681526020016101f461ffff168152602001600061ffff168152506001906003610041929190610087565b50336000806101000a81548173ffffffffffffffffffffffffffffffffffffffff021916908373ffffffffffffffffffffffffffffffffffffffff16021790555061015b565b8260036007016008900481019282156101175791602002820160005b838211156100e557835183826101000a81548163ffffffff021916908361ffff16021790555092602001926004016020816003010492830192600103026100a3565b80156101155782816101000a81549063ffffffff02191690556004016020816003010492830192600103026100e5565b505b5090506101249190610128565b5090565b61015891905b8082111561015457600081816101000a81549063ffffffff02191690555060010161012e565b5090565b90565b6103128061016a6000396000f300608060405260043610610057576000357c0100000000000000000000000000000000000000000000000000000000900463ffffffff1680632f11871a1461005c5780638da5cb5b146100af578063f2fde38b14610106575b600080fd5b34801561006857600080fd5b5061008d600480360381019080803563ffffffff169060200190929190505050610149565b604051808263ffffffff1663ffffffff16815260200191505060405180910390f35b3480156100bb57600080fd5b506100c461016c565b604051808273ffffffffffffffffffffffffffffffffffffffff1673ffffffffffffffffffffffffffffffffffffffff16815260200191505060405180910390f35b34801561011257600080fd5b50610147600480360381019080803573ffffffffffffffffffffffffffffffffffffffff169060200190929190505050610191565b005b60036020528060005260406000206000915054906101000a900463ffffffff1681565b6000809054906101000a900473ffffffffffffffffffffffffffffffffffffffff1681565b6000809054906101000a900473ffffffffffffffffffffffffffffffffffffffff1673ffffffffffffffffffffffffffffffffffffffff163373ffffffffffffffffffffffffffffffffffffffff161415156101ec57600080fd5b600073ffffffffffffffffffffffffffffffffffffffff168173ffffffffffffffffffffffffffffffffffffffff161415151561022857600080fd5b8073ffffffffffffffffffffffffffffffffffffffff166000809054906101000a900473ffffffffffffffffffffffffffffffffffffffff1673ffffffffffffffffffffffffffffffffffffffff167f8be0079c531659141344cd1fd0a4f28419497f9722a3daafe3b4186f6b6457e060405160405180910390a3806000806101000a81548173ffffffffffffffffffffffffffffffffffffffff021916908373ffffffffffffffffffffffffffffffffffffffff160217905550505600a165627a7a723058208323d81b99f7bfadc1e6ae22987e6e79bd100e4428b586635a2ab6a0f48502710029",
  "source": "pragma solidity ^0.4.21;\n\nimport \"./planetresources.sol\";\n\ncontract PlanetBuildings is PlanetResources {\n\n  function _getBuildingUpgradeCost(uint _type, uint _level) internal pure returns(uint metal, uint crystal, uint deut, uint time) {\n    metal = 0;\n    crystal = 0;\n    deut = 0;\n    time = 0;\n    uint factor = 2;\n\n    if (_type == uint(BUILDING.METAL_MINE)) {\n        metal = 60;\n        crystal = 15;\n        factor = 15;\n    } else if (_type == uint(BUILDING.CRYSTAL_MINE)) {\n        metal = 48;\n        crystal = 24;\n        factor = 16;\n    } else if (_type == uint(BUILDING.DEUTERIUM_SYNTH)) {\n        metal = 225;\n        crystal = 75;\n        factor = 15;\n    } else if (_type == uint(BUILDING.SOLAR_PLANT)) {\n        metal = 75;\n        crystal = 30;\n        factor = 15;\n    } else if (_type == uint(BUILDING.ROBOT_FACTORY)) {\n        metal = 400;\n        crystal = 120;\n        deut = 200;\n    } else if (_type == uint(BUILDING.SHIPYARD)) {\n        metal = 400;\n        crystal = 200;\n        deut = 100;\n    } else if (_type == uint(BUILDING.RESEARCH_LAB)) {\n        metal = 200;\n        crystal = 400;\n        deut = 200;\n    }\n\n    metal = (metal * (factor ** (_level-1))) / (10 ** (_level-1));\n    crystal = (crystal * (factor ** (_level-1))) / (10 ** (_level-1));\n    deut = (deut * (factor ** (_level-1))) / (10 ** (_level-1));\n    uint robot = 0; // TODO\n    uint nanite = 0; // TODO\n    time = (3600 * (metal + crystal)) / (2500 * (1 + robot) * 2 ** nanite);\n  }\n\n  function _upgradeBuilding(Planet storage planet, uint resource_type) internal returns(bool) {\n    Building storage building = planet.buildings[resource_type];\n\n    for (uint building_type = 0; building_type < BUILDING_COUNT; building_type++) {\n      if (_isBuildingUpgrading(planet, building_type)) {\n        return false;\n      }\n    }\n\n    uint metal_cost;\n    uint crystal_cost;\n    uint deut_cost;\n    uint construction_time;\n    (metal_cost, crystal_cost, deut_cost, construction_time) = _getBuildingUpgradeCost(resource_type, building.level + 1);\n\n    uint metal = _getPlanetResourceQuantity(planet, uint(RESOURCE.METAL));\n    uint crystal = _getPlanetResourceQuantity(planet, uint(RESOURCE.CRYSTAL));\n    uint deut = _getPlanetResourceQuantity(planet, uint(RESOURCE.DEUTERIUM));\n\n    if (metal < metal_cost || crystal < crystal_cost || deut < deut_cost) {\n      return false;\n    }\n\n    _updateResource(planet, uint(RESOURCE.METAL), uint32(metal.sub(metal_cost)));\n    _updateResource(planet, uint(RESOURCE.CRYSTAL), uint32(crystal.sub(crystal_cost)));\n    _updateResource(planet, uint(RESOURCE.DEUTERIUM), uint32(deut.sub(deut_cost)));\n    building.level = building.level.add(1);\n    building.timestamp_when_built = uint32(now + construction_time * 1 seconds);\n    return true;\n  }\n}\n",
  "sourcePath": "/home/alemoreau/Projects/Dapps/CryptoPlanets/contracts/planetbuildings.sol",
  "compiler": {
    "name": "solc",
    "version": "0.4.22+commit.4cb486ee.Emscripten.clang"
  },
  "schemaVersion": "2.0.0",
  "updatedAt": "2018-04-22T03:18:11.461Z"
}