{
  "contractName": "PlanetCore",
  "abi": [
    {
      "constant": true,
      "inputs": [
        {
          "name": "",
          "type": "uint256"
        }
      ],
      "name": "planetToOwner",
      "outputs": [
        {
          "name": "",
          "type": "address"
        }
      ],
      "payable": false,
      "stateMutability": "view",
      "type": "function"
    },
    {
      "constant": false,
      "inputs": [
        {
          "name": "_to",
          "type": "address"
        },
        {
          "name": "_tokenId",
          "type": "uint256"
        }
      ],
      "name": "approve",
      "outputs": [],
      "payable": false,
      "stateMutability": "nonpayable",
      "type": "function"
    },
    {
      "constant": true,
      "inputs": [
        {
          "name": "",
          "type": "uint32"
        }
      ],
      "name": "planetByPosition",
      "outputs": [
        {
          "name": "",
          "type": "uint32"
        }
      ],
      "payable": false,
      "stateMutability": "view",
      "type": "function"
    },
    {
      "constant": true,
      "inputs": [
        {
          "name": "_tokenId",
          "type": "uint256"
        }
      ],
      "name": "ownerOf",
      "outputs": [
        {
          "name": "_owner",
          "type": "address"
        }
      ],
      "payable": false,
      "stateMutability": "view",
      "type": "function"
    },
    {
      "constant": true,
      "inputs": [
        {
          "name": "_owner",
          "type": "address"
        }
      ],
      "name": "balanceOf",
      "outputs": [
        {
          "name": "_balance",
          "type": "uint256"
        }
      ],
      "payable": false,
      "stateMutability": "view",
      "type": "function"
    },
    {
      "constant": true,
      "inputs": [],
      "name": "planetPrice",
      "outputs": [
        {
          "name": "",
          "type": "uint256"
        }
      ],
      "payable": false,
      "stateMutability": "view",
      "type": "function"
    },
    {
      "constant": true,
      "inputs": [],
      "name": "owner",
      "outputs": [
        {
          "name": "",
          "type": "address"
        }
      ],
      "payable": false,
      "stateMutability": "view",
      "type": "function"
    },
    {
      "constant": false,
      "inputs": [
        {
          "name": "_to",
          "type": "address"
        },
        {
          "name": "_tokenId",
          "type": "uint256"
        }
      ],
      "name": "transfer",
      "outputs": [],
      "payable": false,
      "stateMutability": "nonpayable",
      "type": "function"
    },
    {
      "constant": false,
      "inputs": [
        {
          "name": "_tokenId",
          "type": "uint256"
        }
      ],
      "name": "takeOwnership",
      "outputs": [],
      "payable": false,
      "stateMutability": "nonpayable",
      "type": "function"
    },
    {
      "constant": false,
      "inputs": [
        {
          "name": "newOwner",
          "type": "address"
        }
      ],
      "name": "transferOwnership",
      "outputs": [],
      "payable": false,
      "stateMutability": "nonpayable",
      "type": "function"
    },
    {
      "anonymous": false,
      "inputs": [
        {
          "indexed": true,
          "name": "_from",
          "type": "address"
        },
        {
          "indexed": true,
          "name": "_to",
          "type": "address"
        },
        {
          "indexed": false,
          "name": "_tokenId",
          "type": "uint256"
        }
      ],
      "name": "Transfer",
      "type": "event"
    },
    {
      "anonymous": false,
      "inputs": [
        {
          "indexed": true,
          "name": "_owner",
          "type": "address"
        },
        {
          "indexed": true,
          "name": "_approved",
          "type": "address"
        },
        {
          "indexed": false,
          "name": "_tokenId",
          "type": "uint256"
        }
      ],
      "name": "Approval",
      "type": "event"
    },
    {
      "anonymous": false,
      "inputs": [
        {
          "indexed": false,
          "name": "planetId",
          "type": "uint256"
        }
      ],
      "name": "NewPlanet",
      "type": "event"
    },
    {
      "anonymous": false,
      "inputs": [
        {
          "indexed": true,
          "name": "previousOwner",
          "type": "address"
        },
        {
          "indexed": true,
          "name": "newOwner",
          "type": "address"
        }
      ],
      "name": "OwnershipTransferred",
      "type": "event"
    },
    {
      "constant": false,
      "inputs": [],
      "name": "withdraw",
      "outputs": [],
      "payable": false,
      "stateMutability": "nonpayable",
      "type": "function"
    },
    {
      "constant": false,
      "inputs": [
        {
          "name": "price_wei",
          "type": "uint256"
        }
      ],
      "name": "setBasePlanetPrice",
      "outputs": [],
      "payable": false,
      "stateMutability": "nonpayable",
      "type": "function"
    },
    {
      "constant": true,
      "inputs": [
        {
          "name": "_owner",
          "type": "address"
        }
      ],
      "name": "getPlanetsByOwner",
      "outputs": [
        {
          "name": "",
          "type": "uint256[]"
        }
      ],
      "payable": false,
      "stateMutability": "view",
      "type": "function"
    },
    {
      "constant": true,
      "inputs": [
        {
          "name": "position",
          "type": "uint32"
        }
      ],
      "name": "getPlanetByPosition",
      "outputs": [
        {
          "name": "",
          "type": "uint256"
        }
      ],
      "payable": false,
      "stateMutability": "view",
      "type": "function"
    },
    {
      "constant": true,
      "inputs": [
        {
          "name": "position",
          "type": "uint32"
        }
      ],
      "name": "positionIsEmpty",
      "outputs": [
        {
          "name": "",
          "type": "bool"
        }
      ],
      "payable": false,
      "stateMutability": "view",
      "type": "function"
    },
    {
      "constant": false,
      "inputs": [
        {
          "name": "position",
          "type": "uint32"
        }
      ],
      "name": "colonizePlanet",
      "outputs": [
        {
          "name": "",
          "type": "uint256"
        }
      ],
      "payable": true,
      "stateMutability": "payable",
      "type": "function"
    },
    {
      "constant": false,
      "inputs": [
        {
          "name": "position",
          "type": "uint32"
        }
      ],
      "name": "colonizeHomePlanet",
      "outputs": [
        {
          "name": "",
          "type": "uint256"
        }
      ],
      "payable": false,
      "stateMutability": "nonpayable",
      "type": "function"
    },
    {
      "constant": false,
      "inputs": [
        {
          "name": "planet",
          "type": "uint256"
        },
        {
          "name": "name",
          "type": "string"
        }
      ],
      "name": "renamePlanet",
      "outputs": [],
      "payable": false,
      "stateMutability": "nonpayable",
      "type": "function"
    },
    {
      "constant": false,
      "inputs": [
        {
          "name": "planet",
          "type": "uint256"
        },
        {
          "name": "building_type",
          "type": "uint256"
        }
      ],
      "name": "upgradeBuilding",
      "outputs": [
        {
          "name": "",
          "type": "bool"
        }
      ],
      "payable": false,
      "stateMutability": "nonpayable",
      "type": "function"
    },
    {
      "constant": true,
      "inputs": [
        {
          "name": "planet",
          "type": "uint256"
        }
      ],
      "name": "getPlanetPosition",
      "outputs": [
        {
          "name": "",
          "type": "uint256"
        }
      ],
      "payable": false,
      "stateMutability": "view",
      "type": "function"
    },
    {
      "constant": true,
      "inputs": [
        {
          "name": "planet",
          "type": "uint256"
        }
      ],
      "name": "getPlanetName",
      "outputs": [
        {
          "name": "",
          "type": "string"
        }
      ],
      "payable": false,
      "stateMutability": "view",
      "type": "function"
    },
    {
      "constant": true,
      "inputs": [
        {
          "name": "planet",
          "type": "uint256"
        },
        {
          "name": "resource_type",
          "type": "uint256"
        }
      ],
      "name": "getPlanetResource",
      "outputs": [
        {
          "name": "",
          "type": "uint256"
        }
      ],
      "payable": false,
      "stateMutability": "view",
      "type": "function"
    },
    {
      "constant": true,
      "inputs": [
        {
          "name": "planet",
          "type": "uint256"
        }
      ],
      "name": "getPlanetTotalEnergy",
      "outputs": [
        {
          "name": "",
          "type": "uint256"
        }
      ],
      "payable": false,
      "stateMutability": "view",
      "type": "function"
    },
    {
      "constant": true,
      "inputs": [
        {
          "name": "planet",
          "type": "uint256"
        }
      ],
      "name": "getPlanetEnergyConsumption",
      "outputs": [
        {
          "name": "",
          "type": "uint256"
        }
      ],
      "payable": false,
      "stateMutability": "view",
      "type": "function"
    },
    {
      "constant": true,
      "inputs": [
        {
          "name": "planet",
          "type": "uint256"
        },
        {
          "name": "resource_type",
          "type": "uint256"
        }
      ],
      "name": "getPlanetResourceIncome",
      "outputs": [
        {
          "name": "",
          "type": "uint256"
        }
      ],
      "payable": false,
      "stateMutability": "view",
      "type": "function"
    },
    {
      "constant": true,
      "inputs": [
        {
          "name": "planet",
          "type": "uint256"
        },
        {
          "name": "building_type",
          "type": "uint256"
        }
      ],
      "name": "getPlanetBuildingLevel",
      "outputs": [
        {
          "name": "",
          "type": "uint256"
        }
      ],
      "payable": false,
      "stateMutability": "view",
      "type": "function"
    },
    {
      "constant": true,
      "inputs": [
        {
          "name": "planet",
          "type": "uint256"
        },
        {
          "name": "building_type",
          "type": "uint256"
        }
      ],
      "name": "getPlanetBuildingTimestamp",
      "outputs": [
        {
          "name": "",
          "type": "uint256"
        }
      ],
      "payable": false,
      "stateMutability": "view",
      "type": "function"
    }
  ],
  "bytecode": "0x60806040526060604051908101604052806101f461ffff1681526020016101f461ffff168152602001600061ffff1681525060019060036200004392919062000095565b5066038d7ea4c68000600755336000806101000a81548173ffffffffffffffffffffffffffffffffffffffff021916908373ffffffffffffffffffffffffffffffffffffffff16021790555062000173565b8260036007016008900481019282156200012a5791602002820160005b83821115620000f657835183826101000a81548163ffffffff021916908361ffff1602179055509260200192600401602081600301049283019260010302620000b2565b8015620001285782816101000a81549063ffffffff0219169055600401602081600301049283019260010302620000f6565b505b5090506200013991906200013d565b5090565b6200017091905b808211156200016c57600081816101000a81549063ffffffff02191690555060010162000144565b5090565b90565b61317c80620001836000396000f30060806040526004361061015f576000357c0100000000000000000000000000000000000000000000000000000000900463ffffffff16806305b41c9a14610164578063095ea7b3146101d157806315b65c441461021e57806318fc54ca146102655780632f11871a146102b05780633ccfd60b1461030357806347f902911461031a578063492110e61461034757806352efe8c91461039257806362133a6c146103e15780636352211e14610487578063651179c5146104f457806370a0823114610535578063720483e71461058c578063770c5e2e146105b75780638da5cb5b1461060257806390d868db14610659578063976213cb146106a4578063a74c0906146106de578063a9059cbb14610723578063ab502fdf14610770578063b2e6ceeb14610808578063bcd10dc014610835578063f2fde38b14610880578063f98b7e1b146108c3578063fa73479c1461090a578063fc956cd01461094b575b600080fd5b34801561017057600080fd5b5061018f6004803603810190808035906020019092919050505061098c565b604051808273ffffffffffffffffffffffffffffffffffffffff1673ffffffffffffffffffffffffffffffffffffffff16815260200191505060405180910390f35b3480156101dd57600080fd5b5061021c600480360381019080803573ffffffffffffffffffffffffffffffffffffffff169060200190929190803590602001909291905050506109bf565b005b34801561022a57600080fd5b5061024f600480360381019080803563ffffffff169060200190929190505050610ae9565b6040518082815260200191505060405180910390f35b34801561027157600080fd5b5061029a6004803603810190808035906020019092919080359060200190929190505050610b28565b6040518082815260200191505060405180910390f35b3480156102bc57600080fd5b506102e1600480360381019080803563ffffffff169060200190929190505050610bcd565b604051808263ffffffff1663ffffffff16815260200191505060405180910390f35b34801561030f57600080fd5b50610318610bf0565b005b34801561032657600080fd5b5061034560048036038101908080359060200190929190505050610ccc565b005b34801561035357600080fd5b5061037c6004803603810190808035906020019092919080359060200190929190505050610d34565b6040518082815260200191505060405180910390f35b34801561039e57600080fd5b506103c76004803603810190808035906020019092919080359060200190929190505050610dd9565b604051808215151515815260200191505060405180910390f35b3480156103ed57600080fd5b5061040c60048036038101908080359060200190929190505050610e78565b6040518080602001828103825283818151815260200191508051906020019080838360005b8381101561044c578082015181840152602081019050610431565b50505050905090810190601f1680156104795780820380516001836020036101000a031916815260200191505b509250505060405180910390f35b34801561049357600080fd5b506104b260048036038101908080359060200190929190505050610f3a565b604051808273ffffffffffffffffffffffffffffffffffffffff1673ffffffffffffffffffffffffffffffffffffffff16815260200191505060405180910390f35b34801561050057600080fd5b5061051f60048036038101908080359060200190929190505050610f77565b6040518082815260200191505060405180910390f35b34801561054157600080fd5b50610576600480360381019080803573ffffffffffffffffffffffffffffffffffffffff169060200190929190505050610fb7565b6040518082815260200191505060405180910390f35b34801561059857600080fd5b506105a1611000565b6040518082815260200191505060405180910390f35b3480156105c357600080fd5b506105e8600480360381019080803563ffffffff169060200190929190505050611006565b604051808215151515815260200191505060405180910390f35b34801561060e57600080fd5b506106176110a0565b604051808273ffffffffffffffffffffffffffffffffffffffff1673ffffffffffffffffffffffffffffffffffffffff16815260200191505060405180910390f35b34801561066557600080fd5b5061068e60048036038101908080359060200190929190803590602001909291905050506110c5565b6040518082815260200191505060405180910390f35b6106c8600480360381019080803563ffffffff169060200190929190505050611164565b6040518082815260200191505060405180910390f35b3480156106ea57600080fd5b50610721600480360381019080803590602001909291908035906020019082018035906020019190919293919293905050506111f7565b005b34801561072f57600080fd5b5061076e600480360381019080803573ffffffffffffffffffffffffffffffffffffffff1690602001909291908035906020019092919050505061129b565b005b34801561077c57600080fd5b506107b1600480360381019080803573ffffffffffffffffffffffffffffffffffffffff169060200190929190505050611319565b6040518080602001828103825283818151815260200191508051906020019060200280838360005b838110156107f45780820151818401526020810190506107d9565b505050509050019250505060405180910390f35b34801561081457600080fd5b506108336004803603810190808035906020019092919050505061145d565b005b34801561084157600080fd5b5061086a60048036038101908080359060200190929190803590602001909291905050506114e6565b6040518082815260200191505060405180910390f35b34801561088c57600080fd5b506108c1600480360381019080803573ffffffffffffffffffffffffffffffffffffffff169060200190929190505050611585565b005b3480156108cf57600080fd5b506108f4600480360381019080803563ffffffff1690602001909291905050506116da565b6040518082815260200191505060405180910390f35b34801561091657600080fd5b506109356004803603810190808035906020019092919050505061175a565b6040518082815260200191505060405180910390f35b34801561095757600080fd5b50610976600480360381019080803590602001909291905050506117f7565b6040518082815260200191505060405180910390f35b60046020528060005260406000206000915054906101000a900473ffffffffffffffffffffffffffffffffffffffff1681565b806004600082815260200190815260200160002060009054906101000a900473ffffffffffffffffffffffffffffffffffffffff1673ffffffffffffffffffffffffffffffffffffffff163373ffffffffffffffffffffffffffffffffffffffff16141515610a2d57600080fd5b826006600084815260200190815260200160002060006101000a81548173ffffffffffffffffffffffffffffffffffffffff021916908373ffffffffffffffffffffffffffffffffffffffff1602179055508273ffffffffffffffffffffffffffffffffffffffff163373ffffffffffffffffffffffffffffffffffffffff167f8c5be1e5ebec7d5bd14f71427d1e84f3dd0314c0f7b2291e5b200ac8c7c3b925846040518082815260200191505060405180910390a3505050565b6000600360008363ffffffff1663ffffffff16815260200190815260200160002060009054906101000a900463ffffffff1663ffffffff169050919050565b6000826004600082815260200190815260200160002060009054906101000a900473ffffffffffffffffffffffffffffffffffffffff1673ffffffffffffffffffffffffffffffffffffffff163373ffffffffffffffffffffffffffffffffffffffff16141515610b9857600080fd5b610bbe600285815481101515610baa57fe5b906000526020600020906010020184611894565b63ffffffff1691505092915050565b60036020528060005260406000206000915054906101000a900463ffffffff1681565b6000809054906101000a900473ffffffffffffffffffffffffffffffffffffffff1673ffffffffffffffffffffffffffffffffffffffff163373ffffffffffffffffffffffffffffffffffffffff16141515610c4b57600080fd5b6000809054906101000a900473ffffffffffffffffffffffffffffffffffffffff1673ffffffffffffffffffffffffffffffffffffffff166108fc3073ffffffffffffffffffffffffffffffffffffffff16319081150290604051600060405180830381858888f19350505050158015610cc9573d6000803e3d6000fd5b50565b6000809054906101000a900473ffffffffffffffffffffffffffffffffffffffff1673ffffffffffffffffffffffffffffffffffffffff163373ffffffffffffffffffffffffffffffffffffffff16141515610d2757600080fd5b6001810260078190555050565b6000826004600082815260200190815260200160002060009054906101000a900473ffffffffffffffffffffffffffffffffffffffff1673ffffffffffffffffffffffffffffffffffffffff163373ffffffffffffffffffffffffffffffffffffffff16141515610da457600080fd5b610dca600285815481101515610db657fe5b9060005260206000209060100201846118fe565b63ffffffff1691505092915050565b6000826004600082815260200190815260200160002060009054906101000a900473ffffffffffffffffffffffffffffffffffffffff1673ffffffffffffffffffffffffffffffffffffffff163373ffffffffffffffffffffffffffffffffffffffff16141515610e4957600080fd5b610e6f600285815481101515610e5b57fe5b90600052602060002090601002018461192e565b91505092915050565b6060600282815481101515610e8957fe5b90600052602060002090601002016000018054600181600116156101000203166002900480601f016020809104026020016040519081016040528092919081815260200182805460018160011615610100020316600290048015610f2e5780601f10610f0357610100808354040283529160200191610f2e565b820191906000526020600020905b815481529060010190602001808311610f1157829003601f168201915b50505050509050919050565b60006004600083815260200190815260200160002060009054906101000a900473ffffffffffffffffffffffffffffffffffffffff169050919050565b6000600282815481101515610f8857fe5b906000526020600020906010020160010160009054906101000a900463ffffffff1663ffffffff169050919050565b6000600560008373ffffffffffffffffffffffffffffffffffffffff1673ffffffffffffffffffffffffffffffffffffffff168152602001908152602001600020549050919050565b60075481565b600080600280549050148061109957506000600360008463ffffffff1663ffffffff16815260200190815260200160002060009054906101000a900463ffffffff1663ffffffff1614801561109857508163ffffffff166002600081548110151561106d57fe5b906000526020600020906010020160010160009054906101000a900463ffffffff1663ffffffff1614155b5b9050919050565b6000809054906101000a900473ffffffffffffffffffffffffffffffffffffffff1681565b6000826004600082815260200190815260200160002060009054906101000a900473ffffffffffffffffffffffffffffffffffffffff1673ffffffffffffffffffffffffffffffffffffffff163373ffffffffffffffffffffffffffffffffffffffff1614151561113557600080fd5b61115b60028581548110151561114757fe5b906000526020600020906010020184611b42565b91505092915050565b6000806007543414151561117757600080fd5b600a600560003373ffffffffffffffffffffffffffffffffffffffff1673ffffffffffffffffffffffffffffffffffffffff168152602001908152602001600020541015156111c557600080fd5b6111ce83611006565b15156111d957600080fd5b6111e283612107565b90506111ee3382612581565b80915050919050565b826004600082815260200190815260200160002060009054906101000a900473ffffffffffffffffffffffffffffffffffffffff1673ffffffffffffffffffffffffffffffffffffffff163373ffffffffffffffffffffffffffffffffffffffff1614151561126557600080fd5b828260028681548110151561127657fe5b90600052602060002090601002016000019190611294929190612d9c565b5050505050565b806004600082815260200190815260200160002060009054906101000a900473ffffffffffffffffffffffffffffffffffffffff1673ffffffffffffffffffffffffffffffffffffffff163373ffffffffffffffffffffffffffffffffffffffff1614151561130957600080fd5b61131433848461266d565b505050565b606080600080600560008673ffffffffffffffffffffffffffffffffffffffff1673ffffffffffffffffffffffffffffffffffffffff1681526020019081526020016000205460405190808252806020026020018201604052801561138d5781602001602082028038833980820191505090505b50925060009150600090505b6002805490508163ffffffff161015611452578473ffffffffffffffffffffffffffffffffffffffff16600460008363ffffffff16815260200190815260200160002060009054906101000a900473ffffffffffffffffffffffffffffffffffffffff1673ffffffffffffffffffffffffffffffffffffffff161415611445578063ffffffff16838381518110151561142e57fe5b906020019060200201818152505081806001019250505b8080600101915050611399565b829350505050919050565b60003373ffffffffffffffffffffffffffffffffffffffff166006600084815260200190815260200160002060009054906101000a900473ffffffffffffffffffffffffffffffffffffffff1673ffffffffffffffffffffffffffffffffffffffff161415156114cc57600080fd5b6114d582610f3a565b90506114e281338461266d565b5050565b6000826004600082815260200190815260200160002060009054906101000a900473ffffffffffffffffffffffffffffffffffffffff1673ffffffffffffffffffffffffffffffffffffffff163373ffffffffffffffffffffffffffffffffffffffff1614151561155657600080fd5b61157c60028581548110151561156857fe5b9060005260206000209060100201846126eb565b91505092915050565b6000809054906101000a900473ffffffffffffffffffffffffffffffffffffffff1673ffffffffffffffffffffffffffffffffffffffff163373ffffffffffffffffffffffffffffffffffffffff161415156115e057600080fd5b600073ffffffffffffffffffffffffffffffffffffffff168173ffffffffffffffffffffffffffffffffffffffff161415151561161c57600080fd5b8073ffffffffffffffffffffffffffffffffffffffff166000809054906101000a900473ffffffffffffffffffffffffffffffffffffffff1673ffffffffffffffffffffffffffffffffffffffff167f8be0079c531659141344cd1fd0a4f28419497f9722a3daafe3b4186f6b6457e060405160405180910390a3806000806101000a81548173ffffffffffffffffffffffffffffffffffffffff021916908373ffffffffffffffffffffffffffffffffffffffff16021790555050565b6000806116e683611006565b801561173157506000600560003373ffffffffffffffffffffffffffffffffffffffff1673ffffffffffffffffffffffffffffffffffffffff16815260200190815260200160002054145b151561173c57600080fd5b61174583612107565b90506117513382612581565b80915050919050565b6000816004600082815260200190815260200160002060009054906101000a900473ffffffffffffffffffffffffffffffffffffffff1673ffffffffffffffffffffffffffffffffffffffff163373ffffffffffffffffffffffffffffffffffffffff161415156117ca57600080fd5b6117ef6002848154811015156117dc57fe5b9060005260206000209060100201612798565b915050919050565b6000816004600082815260200190815260200160002060009054906101000a900473ffffffffffffffffffffffffffffffffffffffff1673ffffffffffffffffffffffffffffffffffffffff163373ffffffffffffffffffffffffffffffffffffffff1614151561186757600080fd5b61188c60028481548110151561187957fe5b90600052602060002090601002016127d8565b915050919050565b600080600084600201846007811015156118aa57fe5b0191506118b78585612864565b905080156118de5760018260000160049054906101000a900463ffffffff160392506118f6565b8160000160049054906101000a900463ffffffff1692505b505092915050565b6000826002018260078110151561191157fe5b0160000160009054906101000a900463ffffffff16905092915050565b6000806000806000806000806000808b6002018b60078110151561194e57fe5b019850600097505b600760ff168810156119875761196c8c89612864565b1561197a5760009950611b33565b8780600101985050611956565b6119ae8b60018b60000160049054906101000a900463ffffffff160163ffffffff1661289c565b809750819850829950839a50505050506119d48c600060028111156119cf57fe5b611b42565b92506119ec8c600160028111156119e757fe5b611b42565b9150611a038c6002808111156119fe57fe5b611b42565b905086831080611a1257508582105b80611a1c57508481105b15611a2a5760009950611b33565b611a598c60006002811115611a3b57fe5b611a4e8a87612a4690919063ffffffff16565b63ffffffff16612a5f565b611a888c60016002811115611a6a57fe5b611a7d8986612a4690919063ffffffff16565b63ffffffff16612a5f565b611ab68c600280811115611a9857fe5b611aab8885612a4690919063ffffffff16565b63ffffffff16612a5f565b611ae460018a60000160049054906101000a900463ffffffff1663ffffffff16612acc90919063ffffffff16565b8960000160046101000a81548163ffffffff021916908363ffffffff1602179055506001840242018960000160006101000a81548163ffffffff021916908363ffffffff160217905550600199505b50505050505050505092915050565b6000806000808560090185600381101515611b5957fe5b0192508560020185600781101515611b6d57fe5b019150428360000160009054906101000a900463ffffffff1663ffffffff1610156120e0578260000160009054906101000a900463ffffffff1663ffffffff168260000160009054906101000a900463ffffffff1663ffffffff16111580611bee5750428260000160009054906101000a900463ffffffff1663ffffffff16115b15611d3e57428260000160009054906101000a900463ffffffff1663ffffffff161115611cab57611c9e610e10611c4d8760018660000160049054906101000a900463ffffffff160363ffffffff166064611c488c612af4565b612b17565b8560000160009054906101000a900463ffffffff1663ffffffff16420302811515611c7457fe5b048460000160049054906101000a900463ffffffff1663ffffffff16612acc90919063ffffffff16565b63ffffffff1693506120fe565b611d31610e10611ce0878560000160049054906101000a900463ffffffff1663ffffffff166064611cdb8c612af4565b612b17565b8560000160009054906101000a900463ffffffff1663ffffffff16420302811515611d0757fe5b048460000160049054906101000a900463ffffffff1663ffffffff16612acc90919063ffffffff16565b63ffffffff1693506120fe565b6000905060006006811115611d4f57fe5b851415611e1657611e0f60018760020160006006811115611d6c57fe5b600781101515611d7857fe5b0160000160049054906101000a900463ffffffff160363ffffffff1660648860020160016006811115611da757fe5b600781101515611db357fe5b0160000160049054906101000a900463ffffffff1663ffffffff1660648a60020160026006811115611de157fe5b600781101515611ded57fe5b0160000160049054906101000a900463ffffffff1663ffffffff166064612bd8565b9050611fbc565b60016006811115611e2357fe5b851415611eea57611ee38660020160006006811115611e3e57fe5b600781101515611e4a57fe5b0160000160049054906101000a900463ffffffff1663ffffffff16606460018960020160016006811115611e7a57fe5b600781101515611e8657fe5b0160000160049054906101000a900463ffffffff160363ffffffff1660648a60020160026006811115611eb557fe5b600781101515611ec157fe5b0160000160049054906101000a900463ffffffff1663ffffffff166064612bd8565b9050611fbb565b60026006811115611ef757fe5b851415611fba57611fb78660020160006006811115611f1257fe5b600781101515611f1e57fe5b0160000160049054906101000a900463ffffffff1663ffffffff1660648860020160016006811115611f4c57fe5b600781101515611f5857fe5b0160000160049054906101000a900463ffffffff1663ffffffff16606460018b60020160026006811115611f8857fe5b600781101515611f9457fe5b0160000160049054906101000a900463ffffffff160363ffffffff166064612bd8565b90505b5b5b6120d3610e10611ffd8760018660000160049054906101000a900463ffffffff160363ffffffff166064611ff887611ff38e612798565b612c5c565b612b17565b8560000160009054906101000a900463ffffffff168560000160009054906101000a900463ffffffff160363ffffffff160281151561203857fe5b046120bf610e1061206e898760000160049054906101000a900463ffffffff1663ffffffff1660646120698e612af4565b612b17565b8660000160009054906101000a900463ffffffff1663ffffffff1642030281151561209557fe5b048660000160049054906101000a900463ffffffff1663ffffffff16612acc90919063ffffffff16565b63ffffffff16612acc90919063ffffffff16565b63ffffffff1693506120fe565b8260000160049054906101000a900463ffffffff1663ffffffff1693505b50505092915050565b600080600080600280548091906001016121219190612e1c565b92508263ffffffff168314151561213757600080fd5b60028381548110151561214657fe5b9060005260206000209060100201915082600360008763ffffffff1663ffffffff16815260200190815260200160002060006101000a81548163ffffffff021916908363ffffffff1602179055506040805190810160405280600681526020017f506c616e657400000000000000000000000000000000000000000000000000008152508260000190805190602001906121e1929190612e4e565b50848260010160006101000a81548163ffffffff021916908363ffffffff160217905550600090505b600760ff168160ff1610156122ae5760408051908101604052804263ffffffff168152602001600063ffffffff16815250826002018260ff1660078110151561224f57fe5b0160008201518160000160006101000a81548163ffffffff021916908363ffffffff16021790555060208201518160000160046101000a81548163ffffffff021916908363ffffffff160217905550905050808060010191505061220a565b600090505b600360ff168160ff1610156123835760408051908101604052804263ffffffff16815260200160018360ff166003811015156122eb57fe5b600891828204019190066004029054906101000a900463ffffffff1663ffffffff16815250826009018260ff1660038110151561232457fe5b0160008201518160000160006101000a81548163ffffffff021916908363ffffffff16021790555060208201518160000160046101000a81548163ffffffff021916908363ffffffff16021790555090505080806001019150506122b3565b600090505b600260ff168160ff161015612461576060604051908101604052804263ffffffff168152602001600063ffffffff168152602001600063ffffffff1681525082600c018260ff166002811015156123db57fe5b0160008201518160000160006101000a81548163ffffffff021916908363ffffffff16021790555060208201518160000160046101000a81548163ffffffff021916908363ffffffff16021790555060408201518160000160086101000a81548163ffffffff021916908363ffffffff1602179055509050508080600101915050612388565b600090505b600260ff168160ff16101561253f576060604051908101604052804263ffffffff168152602001600063ffffffff168152602001600063ffffffff1681525082600e018260ff166002811015156124b957fe5b0160008201518160000160006101000a81548163ffffffff021916908363ffffffff16021790555060208201518160000160046101000a81548163ffffffff021916908363ffffffff16021790555060408201518160000160086101000a81548163ffffffff021916908363ffffffff1602179055509050508080600101915050612466565b7f8a8b1d5f1defbbe51c053d2ff7e04ee478d5ad46d9ab99bf79c3144ac3a2cfa6836040518082815260200191505060405180910390a1829350505050919050565b6125d46001600560008573ffffffffffffffffffffffffffffffffffffffff1673ffffffffffffffffffffffffffffffffffffffff16815260200190815260200160002054612c9390919063ffffffff16565b600560008473ffffffffffffffffffffffffffffffffffffffff1673ffffffffffffffffffffffffffffffffffffffff16815260200190815260200160002081905550816004600083815260200190815260200160002060006101000a81548173ffffffffffffffffffffffffffffffffffffffff021916908373ffffffffffffffffffffffffffffffffffffffff1602179055505050565b6126778382612caf565b6126818282612581565b8173ffffffffffffffffffffffffffffffffffffffff168373ffffffffffffffffffffffffffffffffffffffff167fddf252ad1be2c89b69c2b068fc378daa952ba7f163c4a11628f55a4df523b3ef836040518082815260200191505060405180910390a3505050565b600080600080600080876002018760078110151561270557fe5b019450428560000160009054906101000a900463ffffffff1663ffffffff1611935083156127525760018560000160049054906101000a900463ffffffff160363ffffffff169250612770565b8460000160049054906101000a900463ffffffff1663ffffffff1692505b6064915061277d88612af4565b905061278b87848484612b17565b9550505050505092915050565b6000806127b183600360068111156127ac57fe5b611894565b63ffffffff16905080600a0a81600b0a82601402028115156127cf57fe5b04915050919050565b60008060008060008060006127f988600060068111156127f457fe5b611894565b63ffffffff169550612817886001600681111561281257fe5b611894565b63ffffffff169450612835886002600681111561283057fe5b611894565b63ffffffff169350606492506064915060649050612857868487858886612bd8565b9650505050505050919050565b600042836002018360078110151561287857fe5b0160000160009054906101000a900463ffffffff1663ffffffff1611905092915050565b600080600080600080600080965060009550600094506000935060029250600060068111156128c757fe5b8914156128df57603c9650600f9550600f92506129c1565b600160068111156128ec57fe5b891415612904576030965060189550601092506129c0565b6002600681111561291157fe5b8914156129295760e19650604b9550600f92506129bf565b6003600681111561293657fe5b89141561294e57604b9650601e9550600f92506129be565b6004600681111561295b57fe5b8914156129745761019096506078955060c894506129bd565b6005600681111561298157fe5b89141561299a57610190965060c89550606494506129bc565b6006808111156129a657fe5b8914156129bb5760c89650610190955060c894505b5b5b5b5b5b5b60018803600a0a60018903840a88028115156129d957fe5b04965060018803600a0a60018903840a87028115156129f457fe5b04955060018803600a0a60018903840a8602811515612a0f57fe5b04945060009150600090508060020a826001016109c40202868801610e1002811515612a3757fe5b04935050505092959194509250565b6000828211151515612a5457fe5b818303905092915050565b808360090183600381101515612a7157fe5b0160000160046101000a81548163ffffffff021916908363ffffffff160217905550428360090183600381101515612aa557fe5b0160000160006101000a81548163ffffffff021916908363ffffffff160217905550505050565b600081830190508263ffffffff168163ffffffff1610151515612aeb57fe5b80905092915050565b6000612b10612b02836127d8565b612b0b84612798565b612c5c565b9050919050565b6000806002811115612b2557fe5b851415612b545760048401600a0a84600b0a858585601e02020202811515612b4957fe5b04601e019050612bd0565b60016002811115612b6157fe5b851415612b905760048401600a0a84600b0a858585601402020202811515612b8557fe5b04600f019050612bd0565b600280811115612b9c57fe5b851415612bcb5760048401600a0a84600b0a858585600a02020202811515612bc057fe5b046000019050612bd0565b600090505b949350505050565b6000612c5083600a0a60640284600b0a85601486020202811515612bf857fe5b04612c4287600a0a60640288600b0a89600a8a020202811515612c1757fe5b048a600a0a6064028b600b0a8c600a8d020202811515612c3357fe5b04612c9390919063ffffffff16565b612c9390919063ffffffff16565b90509695505050505050565b60008183111580612c6d5750600083145b15612c7b5760649050612c8d565b8282606402811515612c8957fe5b0490505b92915050565b60008183019050828110151515612ca657fe5b80905092915050565b612d026001600560008573ffffffffffffffffffffffffffffffffffffffff1673ffffffffffffffffffffffffffffffffffffffff16815260200190815260200160002054612a4690919063ffffffff16565b600560008473ffffffffffffffffffffffffffffffffffffffff1673ffffffffffffffffffffffffffffffffffffffff1681526020019081526020016000208190555060006004600083815260200190815260200160002060006101000a81548173ffffffffffffffffffffffffffffffffffffffff021916908373ffffffffffffffffffffffffffffffffffffffff1602179055505050565b828054600181600116156101000203166002900490600052602060002090601f016020900481019282601f10612ddd57803560ff1916838001178555612e0b565b82800160010185558215612e0b579182015b82811115612e0a578235825591602001919060010190612def565b5b509050612e189190612ece565b5090565b815481835581811115612e4957601002816010028360005260206000209182019101612e489190612ef3565b5b505050565b828054600181600116156101000203166002900490600052602060002090601f016020900481019282601f10612e8f57805160ff1916838001178555612ebd565b82800160010185558215612ebd579182015b82811115612ebc578251825591602001919060010190612ea1565b5b509050612eca9190612ece565b5090565b612ef091905b80821115612eec576000816000905550600101612ed4565b5090565b90565b612f7691905b80821115612f725760008082016000612f129190612f79565b6001820160006101000a81549063ffffffff0219169055600282016000612f399190612fc1565b600982016000612f499190612fd4565b600c82016000612f59919061306e565b600e82016000612f69919061306e565b50601001612ef9565b5090565b90565b50805460018160011615610100020316600290046000825580601f10612f9f5750612fbe565b601f016020900490600052602060002090810190612fbd9190612ece565b5b50565b508060070190612fd19190613103565b50565b50600080820160006101000a81549063ffffffff02191690556000820160046101000a81549063ffffffff021916905550600101600080820160006101000a81549063ffffffff02191690556000820160046101000a81549063ffffffff021916905550600101600080820160006101000a81549063ffffffff02191690556000820160046101000a81549063ffffffff02191690555050565b50600080820160006101000a81549063ffffffff02191690556000820160046101000a81549063ffffffff02191690556000820160086101000a81549063ffffffff021916905550600101600080820160006101000a81549063ffffffff02191690556000820160046101000a81549063ffffffff02191690556000820160086101000a81549063ffffffff02191690555050565b61314d91905b8082111561314957600080820160006101000a81549063ffffffff02191690556000820160046101000a81549063ffffffff021916905550600101613109565b5090565b905600a165627a7a72305820b236e962bd1380c9c3cd3f88f59da1dfb85293421de61ce74e674032da4dfcba0029",
  "source": "pragma solidity ^0.4.21;\n\nimport \"./planetownership.sol\";\n\n\ncontract PlanetCore is PlanetOwnership {\n\n  uint public planetPrice = 1 finney;\n\n  function withdraw() external onlyOwner {\n    owner.transfer(address(this).balance);\n  }\n\n  function setBasePlanetPrice(uint price_wei) external onlyOwner {\n    planetPrice = price_wei * 1 wei;\n  }\n\n  function getPlanetsByOwner(address _owner) external view returns(uint[]) {\n    uint[] memory result = new uint[](ownerPlanetCount[_owner]);\n    uint counter = 0;\n    for (uint32 i = 0; i < planets.length; i++) {\n      if (planetToOwner[i] == _owner) {\n        result[counter] = i;\n        counter++;\n      }\n    }\n    return result;\n  }\n  function getPlanetByPosition(uint32 position) public view returns(uint) {\n    return planetByPosition[position];\n  }\n\n  function positionIsEmpty(uint32 position) public view returns(bool) {\n    return planets.length == 0 || (planetByPosition[position] == 0 && planets[0].position != position);\n  }\n  function colonizePlanet(uint32 position) external payable returns(uint) {\n    require(msg.value == planetPrice);\n    require(ownerPlanetCount[msg.sender] < 10);\n    // TODO, check colonization vessel etc..\n    // Can only colonize if nobody owns it\n    require(positionIsEmpty(position));\n    uint planetId = _createPlanet(position);\n    _receive(msg.sender, planetId);\n    return planetId;\n  }\n  function colonizeHomePlanet(uint32 position) external returns(uint) {\n    // Can only colonize if nobody owns it and if it is the first user's planet\n    require(positionIsEmpty(position) && ownerPlanetCount[msg.sender] == 0);\n    uint planetId = _createPlanet(position);\n    _receive(msg.sender, planetId);\n    return planetId;\n  }\n  function renamePlanet(uint planet, string name) external onlyOwnerOf(planet) {\n    planets[planet].name = name;\n  }\n  function upgradeBuilding(uint planet, uint building_type) external onlyOwnerOf(planet) returns(bool) {\n    return _upgradeBuilding(planets[planet], building_type);\n  }\n  function getPlanetPosition(uint planet) external view returns(uint) {\n    return planets[planet].position;\n  }\n  function getPlanetName(uint planet) external view returns(string) {\n    return planets[planet].name;\n  }\n  function getPlanetResource(uint planet, uint resource_type) external view onlyOwnerOf(planet) returns (uint) {\n    return _getPlanetResourceQuantity(planets[planet], resource_type);\n  }\n  function getPlanetTotalEnergy(uint planet) external view onlyOwnerOf(planet) returns(uint) {\n    return _getPlanetTotalEnergy(planets[planet]);\n  }\n  function getPlanetEnergyConsumption(uint planet) external view onlyOwnerOf(planet) returns(uint) {\n    return _getPlanetEnergyConsumption(planets[planet]);\n  }\n  function getPlanetResourceIncome(uint planet, uint resource_type) external view onlyOwnerOf(planet) returns (uint) {\n    return _getPlanetResourceIncome(planets[planet], resource_type);\n  }\n  function getPlanetBuildingLevel(uint planet, uint building_type) external view onlyOwnerOf(planet) returns (uint) {\n    return _getPlanetBuildingLevel(planets[planet], building_type);\n  }\n  function getPlanetBuildingTimestamp(uint planet, uint building_type) external view onlyOwnerOf(planet) returns (uint) {\n    return _getPlanetBuildingTimestamp(planets[planet], building_type);\n  }\n}\n",
  "sourcePath": "/home/alemoreau/Projects/Dapps/CryptoPlanets/contracts/planetcore.sol",
  "compiler": {
    "name": "solc",
    "version": "0.4.22+commit.4cb486ee.Emscripten.clang"
  },
  "schemaVersion": "2.0.0",
  "updatedAt": "2018-04-22T03:18:11.780Z"
}